:100000004BC0000066C0000064C0000062C0000079
:1000100060C000005EC000005CC000005AC000006C
:1000200058C0000056C0000054C0000052C000007C
:1000300050C000004EC000004CC000004AC000008C
:1000400048C0000046C0000044C0000042C000009C
:1000500040C000003EC000003CC000003AC00000AC
:1000600038C0000036C0000034C0000032C00000BC
:1000700030C000002EC000002CC000002AC00000CC
:1000800028C0000026C0000024C0000022C00000DC
:1000900020C000001EC0000011241FBECFEFD0E220
:1000A000DEBFCDBF11E0A0E0B1E0EAEAF1E000E0A0
:1000B0000BBF02C007900D92AE30B107D9F721E017
:1000C000AEE0B1E001C01D92A431B207E1F702D069
:1000D0006AC096CF1DD02AD08FEF9FEF3AD032D092
:1000E0008823E9F328D0FBCF90E045B1880F991F12
:1000F00021E030E0082E01C0220F0A94EAF76623BF
:1001000021F02095242325B90895422B45B908955F
:10011000CF93209A229A249A269AC0E060E08C2FEE
:10012000E3DFCF5FC430D1F7CF91089521982398B2
:100130002598279808959091C80095FFFCCF80934B
:10014000CE0008958091C80087FFFCCF8091CE003B
:1001500008951092CD0083E38093CC00A9ECB0E029
:100160001C928C9180618C938C9188608C93EAECCA
:10017000F0E010828081886080838081826080834B
:100180008081846080838C918B7F8C9380818F7E33
:10019000808380818F7D808380E091E09093110146
:0A01A000809310010895F894FFCF3A
:0E01AA0000000002000000009B00A200000008
:00000001FF
