S01100004578657263697365332E73726563A8
S11300004BC0000066C0000064C0000062C0000075
S113001060C000005EC000005CC000005AC0000068
S113002058C0000056C0000054C0000052C0000078
S113003050C000004EC000004CC000004AC0000088
S113004048C0000046C0000044C0000042C0000098
S113005040C000003EC000003CC000003AC00000A8
S113006038C0000036C0000034C0000032C00000B8
S113007030C0000046C000002CC000002AC00000B0
S113008028C0000026C0000024C0000022C00000D8
S113009020C000001EC0000011241FBECFEFD0E21C
S11300A0DEBFCDBF11E0A0E0B1E0E2E2FBE000E0A2
S11300B00BBF02C007900D92A831B107D9F721E018
S11300C0A8E1B1E001C01D92A032B207E1F7BBD0B4
S11300D026C596CFECE7F0E080818F7B808380811A
S11300E08F778083EAE7F0E080818160808380817C
S11300F08260808380818460808380818068808343
S113010008951F920F920FB60F9211240BB60F92FF
S11301102F933F934F935F936F937F938F939F930B
S1130120AF93BF93EF93FF93809178009091790000
S1130130E0911801F09119010995EAE7F0E0808156
S113014080648083FF91EF91BF91AF919F918F91D4
S11301507F916F915F914F913F912F910F900BBEC3
S11301600F900FBE0F901F90189580937C00EAE7C4
S1130170F0E08081806280838081806480838081DC
S113018088608083789470931901609318010895AE
S11301909091C80095FFFCCF8093CE000895809184
S11301A0C80087FFFCCF8091CE0008959093CD00C6
S11301B08093CC00A9ECB0E01C928C9180618C936C
S11301C08C9188608C93EAECF0E0108280818860E6
S11301D080838081826080838081846080838C912D
S11301E08B7F8C9380818F7E808380818F7D8083C1
S11301F080E091E090931D0180931C010895CF93BA
S1130200DF93EC01DF93CF938EE091E09F938F9384
S1130210E1D10F900F900F900F90BE0180E090E01D
S1130220E8D02FE632E143E85AE371D120E030E030
S113023040E85AE36CD12FE632E143E85AE349D06F
S1130240DF91CF913AC083E390E0B0DF43DF0ED07B
S11302506FEF70E081E089DF2FEF81EE94E02150B1
S113026080409040E1F700C00000F6CFE0E8F0E005
S113027080818068808380818062808380818260C5
S11302808083E1E8F0E08081886080838081806100
S1130290808380818260808380818160808382E822
S11302A0809390008AE18093910087E893E1909392
S11302B0870080938600259A089520E034E244E77D
S11302C058E425D16AD0709389006093880008951A
S11302D05058BB27AA270ED0E0C0D1D030F0D6D0DA
S11302E020F031F49F3F11F41EF4C6C00EF4E095E3
S11302F0E7FBBCC0E92FE2D080F3BA1762077307AB
S11303008407950718F071F49EF5FAC00EF4E09591
S11303100B2EBA2FA02D0B01B90190010C01CA01BB
S1130320A0011124FF27591B99F0593F50F4503E66
S113033068F11A16F040A22F232F342F4427585F58
S1130340F3CF469537952795A795F0405395C9F770
S11303507EF41F16BA0B620B730B840BBAF0915028
S1130360A1F0FF0FBB1F661F771F881FC2F70EC0C7
S1130370BA0F621F731F841F48F48795779567959A
S1130380B795F7959E3F08F0B3CF9395880F08F083
S11303909927EE0F97958795089598D088F09F57E1
S11303A090F0B92F9927B751A0F0D1F0660F771FBD
S11303B0881F991F1AF0BA95C9F712C0B13081F09D
S11303C09FD0B1E008959CC0672F782F8827B85F2D
S11303D039F0B93FCCF3869577956795B395D9F7FE
S11303E03EF490958095709561957F4F8F4F9F4F08
S11303F00895E89409C097FB3EF490958095709514
S113040061957F4F8F4F9F4F9923A9F0F92F96E95C
S1130410BB279395F695879577956795B795F111D1
S1130420F8CFFAF4BB0F11F460FF1BC06F5F7F4F6E
S11304308F4F9F4F16C0882311F096E911C0772380
S113044021F09EE8872F762F05C0662371F096E889
S1130450862F70E060E02AF09A95660F771F881F58
S1130460DAF7880F9695879597F9089597F99F6716
S113047080E870E060E008959FEF80EC0895002428
S11304800A941616170618060906089500240A94F5
S113049012161306140605060895092E0394000C7B
S11304A011F4882352F0BB0F40F4BF2B11F460FF0A
S11304B004C06F5F7F4F8F4F9F4F089557FD905833
S11304C0440F551F59F05F3F71F04795880F97FB14
S11304D0991F61F09F3F79F08795089512161306CE
S11304E01406551FF2CF4695F1DF08C016161706FD
S11304F01806991FF1CF8695710561050894089532
S1130500E894BB2766277727CB0197F908950BD08A
S1130510C4CFB5DF28F0BADF18F0952309F0A6CFD1
S1130520ABCF1124EECFCADFA0F3959FD1F3950F83
S113053050E0551F629FF001729FBB27F00DB11D63
S1130540639FAA27F00DB11DAA1F649F6627B00DF3
S1130550A11D661F829F2227B00DA11D621F739FDC
S1130560B00DA11D621F839FA00D611D221F749FEA
S11305703327A00D611D231F849F600D211D822F31
S1130580762F6A2F11249F5750408AF0E1F0882378
S11305904AF0EE0FFF1FBB1F661F771F881F915085
S11305A05040A9F79E3F510570F060CFAACF5F3F3E
S11305B0ECF3983EDCF3869577956795B795F795B8
S11305C0E7959F5FC1F7FE2B880F911D9695879540
S11305D097F90895CF93DF93CDB7DEB7FE01359633
S11305E061917191AF0180911C0190911D0103D023
S11305F0DF91CF9108952F923F924F925F926F9225
S11306007F928F929F92AF92BF92CF92DF92EF929E
S1130610FF920F931F93CF93DF93CDB7DEB72C9741
S11306200FB6F894DEBF0FBECDBF7C016B018A010B
S1130630FC0117821682838181FFB0C1CE0101962D
S11306404C01F7019381F60193FD859193FF81910C
S11306506F01882309F49EC1853239F493FD859195
S113066093FF81916F01853221F4B70190E0C7D1E6
S1130670E8CF512C312C20E02032A0F48B3269F0E9
S113068030F4803259F0833269F420612CC08D3209
S113069039F0803339F4216026C02260246023C0FD
S11306A0286021C027FD27C030ED380F3A3078F498
S11306B026FF06C0FAE05F9E300D1124532E13C0AE
S11306C08AE0389E300D1124332E20620CC08E3205
S11306D021F426FD5FC1206406C08C3611F4206825
S11306E002C0883641F4F60193FD859193FF819110
S11306F06F018111C1CF982F9F7D9554933028F4B9
S11307000C5F1F4FFFE3F9830DC0833631F083374D
S113071071F0833509F057C021C0F80180818983C5
S11307200E5F1F4F44244394512C540114C03801CC
S1130730F2E06F0E711CF801A080B18026FF03C0A7
S1130740652D70E002C06FEF7FEFC5012C874CD19F
S11307502C0183012C852F77222E16C03801F2E05C
S11307606F0E711CF801A080B18026FF03C0652DB7
S113077070E002C06FEF7FEFC5012C872AD12C01F6
S11307802C852068222E830123FC19C0832D90E040
S113079048165906A0F4B70180E290E030D13A94AB
S11307A0F5CFF50127FC859127FE81915F01B70103
S11307B090E025D131103A94F1E04F1A51084114D8
S11307C0510479F7DEC0843611F0893631F5F80129
S11307D027FF07C060817181828193810C5F1F4F65
S11307E008C060817181882777FD8095982F0E5FFE
S11307F01F4F2F76B22E97FF09C090958095709564
S113080061957F4F8F4F9F4F2068B22E2AE030E0D2
S1130810A40127D1A82EA81843C0853729F42F7E18
S1130820B22E2AE030E025C0F22FF97FBF2E8F369A
S1130830C1F018F4883579F0ADC0803719F08837E5
S113084021F0A8C02F2F2061B22EB4FE0DC08B2D35
S11308508460B82E09C024FF0AC09F2F9660B92E69
S113086006C028E030E005C020E130E002C020E10D
S113087032E0F801B7FE07C0608171818281938103
S11308800C5F1F4F06C06081718180E090E00E5FB5
S11308901F4FA401E6D0A82EA818FB2DFF77BF2E6A
S11308A0B6FE0BC02B2D2E7FA51450F4B4FE0AC047
S11308B0B2FC08C02B2D2E7E05C07A2C2B2D03C034
S11308C07A2C01C0752C24FF0DC0FE01EA0DF11D28
S11308D08081803311F4297E09C022FF06C07394FD
S11308E0739404C0822F867809F0739423FD12C098
S11308F020FF06C05A2C731418F4530C5718732C89
S1130900731460F4B70180E290E02C8778D073947C
S11309102C85F6CF731410F4371801C0312C24FF42
S113092011C0B70180E390E02C8769D02C8522FFA9
S113093016C021FF03C088E590E002C088E790E07C
S1130940B7010CC0822F867851F021FD02C080E2ED
S113095001C08BE227FD8DE2B70190E050D0A514D1
S113096030F4B70180E390E04AD05A94F8CFAA94C7
S1130970F401EA0DF11D8081B70190E040D0A1108F
S1130980F6CF332009F45DCEB70180E290E037D092
S11309903A94F7CFF7018681978102C08FEF9FEFDA
S11309A02C960FB6F894DEBF0FBECDBFDF91CF916A
S11309B01F910F91FF90EF90DF90CF90BF90AF9079
S11309C09F908F907F906F905F904F903F902F906B
S11309D00895FC010590615070400110D8F780958E
S11309E090958E0F9F1F0895FC01615070400190F7
S11309F00110D8F7809590958E0F9F1F08950F933F
S1130A001F93CF93DF93182F092FEB018B8181FD67
S1130A1003C08FEF9FEF20C082FF10C04E815F8123
S1130A202C813D81421753077CF4E881F9819F01B1
S1130A302F5F3F4F39832883108306C0E885F985EB
S1130A40812F0995892B29F72E813F812F5F3F4FF5
S1130A503F832E83812F902FDF91CF911F910F9190
S1130A600895FA01AA27283051F1203181F1E89440
S1130A706F936E7F6E5F7F4F8F4F9F4FAF4FB1E08D
S1130A803ED0B4E03CD0670F781F891F9A1FA11D88
S1130A90680F791F8A1F911DA11D6A0F711D811D89
S1130AA0911DA11D20D009F468943F912AE0269F4E
S1130AB011243019305D3193DEF6CF010895462FAD
S1130AC04770405D4193B3E00FD0C9F7F6CF462F8E
S1130AD04F70405D4A3318F0495D31FD40524193F7
S1130AE002D0A9F7EACFB4E0A695979587957795B4
S1130AF06795BA95C9F700976105710508959B013B
S1130B00AC010A2E06945795479537952795BA95C3
S1130B10C9F7620F731F841F951FA01D0895F894D1
S1050B20FFCF01
S1130B220000000200000000C800CF0000004144A1
S10B0B32433A2025750A000076
S9030000FC
